:100000000C9434000C943E000C943E000C943E0082
:100010000C943E000C943E000C943E000C943E0068
:100020000C9440000C943E000C943E000C943E0056
:100030000C943E000C943E000C943E000C943E0048
:100040000C943E000C943E000C943E000C943E0038
:100050000C943E000C943E000C943E000C943E0028
:100060000C943E000C943E0011241FBECFEFD8E04C
:10007000DEBFCDBF0E944A000C9495000C94000096
:100080001F920F920FB60F9211240F900FBE0F9078
:100090001F90189584B7877F84BF80916000877F09
:1000A0008093600083B7866083BF8BB18C7F8BB9F0
:1000B000509A519A1092700080E28093B60010928C
:1000C000B2008EE78093B4008091B1008560809388
:1000D000B1008091B6002091B6009091B600807179
:1000E0002170822B9170892BA1F785E087BB84E07A
:1000F000809370007894A89585E090E0589A2FEF4F
:1001000039E648E1215030404040E1F700C00000AE
:1001100058982FEF39E648E1215030404040E1F750
:0E01200000C00000019751F7E6CFF894FFCF22
:00000001FF
